:10000000A6C00000C0C00000BEC00000BCC0000010
:10001000BAC00000B8C00000B6C00000B4C0000004
:10002000B2C00000B0C00000AEC00000ADC400000F
:10003000AAC00000A8C00000A6C00000A4C0000024
:10004000A2C00000A0C000009EC000009CC0000034
:100050009AC0000098C0000096C0000094C0000044
:1000600092C0000090C000008EC000008CC0000054
:100070008AC00000240350004F004B004B00450095
:100080004E00200043004F004E00540052004F002D
:100090004C004C004500520000001C0348004F007B
:1000A00052004900200043004F002E002C004C005D
:1000B000540044002E000000040309040902290032
:1000C00001010080FA090400000203000000092178
:1000D0001101000122560007050203400005070533
:1000E000810340000512010002000000400D0F9244
:1000F0000000010102000105010905A1011500250B
:100100000135004501750195100509190129108176
:100110000205012507463B0175049501651409395F
:10012000814265009501810126FF0046FF000930EC
:100130000931093209357508950481020600FF0965
:1001400020950181020A212695089102C000112400
:100150001FBECFEFD2E0DEBFCDBF11E0A0E0B1E027
:10016000EEEDFDE102C005900D92A230B107D9F786
:1001700021E0A2E0B1E001C01D92AE31B207E1F78B
:100180006CD10C94ED0E3CCF4F925F926F927F92A8
:100190008F929F92AF92BF92CF92DF92EF92FF9297
:1001A000CF93DF9383B14091080150910901609191
:1001B0000A0170910B01762F652F542F4427480FA9
:1001C000511D611D711D40930801509309016093F9
:1001D0000A0170930B0189B1C0900401D090050110
:1001E000E0900601F0900701FE2CED2CDC2CCC24D5
:1001F000C80ED11CE11CF11CC0920401D092050173
:10020000E0920601F09207018091020190910301B2
:1002100030E020E0E1E0F0E088248394982C540161
:10022000022E04C0880C991CAA1CBB1C0A94D2F78D
:100230002A013B01482059206A207B208414950420
:10024000A604B704B9F5DF01022E02C0AA0FBB1F36
:100250000A94E2F78A2B9B2B26013701482059206C
:100260006A207B2084149504A604B70499F5D9016B
:100270001896EF0102C0CC0FDD1FAA95E2F7DE0150
:100280008C2B9B2B2F5F3F4F2830310529F6909305
:10029000030180930201DF91CF91FF90EF90DF90F7
:1002A000CF90BF90AF909F908F907F906F905F9016
:1002B0004F90089545284628472871F6DF01022E01
:1002C00002C0AA0FBB1F0A94E2F7A095B0958A233B
:1002D0009B23C2CF452846284728A1F6D901189666
:1002E000EF0102C0CC0FDD1FAA95E2F7DE01A09559
:1002F000B0958A239B23C6CF84B7877F84BF0FB670
:10030000F894A895809160008861809360001092B5
:1003100060000FBE80E890E00FB6F8948093610013
:10032000909361000FBE8AB11AB88BB18FEF8BB971
:1003300094B114B895B185B918C30895089542E3EE
:1003400060EC82E055D242E361EC81E051C2CF9390
:10035000DF93CDB7DEB728970FB6F894DEBF0FBE98
:10036000CDBF80911701813059F0893001F1289675
:100370000FB6F894DEBF0FBECDBFDF91CF910895C9
:1003800080911601813A99F7CE01019616D5809198
:10039000E800877F8093E80068E070E0CE01019676
:1003A0003FD18091E8008B778093E800E0CF809187
:1003B00016018132E1F68091E800877F8093E800A2
:1003C00067E070E0CE01019684D18091E8008E77DD
:1003D000EBCFCF93DF93CDB7DEB728970FB6F89466
:1003E000DEBF0FBECDBF80911501843069F582E07C
:1003F0008093E9008091E80082FF10C08091E800BE
:1004000085FF07C050E040E067E070E0CE01019654
:10041000B9D08091E8008B778093E80081E08093E9
:10042000E9008091E80080FF0FC0CE010196C5D49D
:1004300050E040E068E070E0CE01019655D0809138
:10044000E8008E778093E80028960FB6F894DEBF18
:100450000FBECDBFDF91CF9108954EDF7894B9DF05
:1004600092D492DEFCCF9C01DA01832F992783304E
:100470009105B9F060F48130910561F10297E1F4E2
:1004800089E290E02CEB30E02D933C93089581328B
:10049000910529F1829781F486E590E027EF30E01D
:1004A000F3CFC9019927213061F08230910579F0AD
:1004B000E8EBF0E0892B39F090E080E030E020E0DC
:1004C000E3CFEAE9F0E0849190E09F01DDCFE4E73B
:1004D000F0E0F9CF82E190E025EE30E0D5CF89E081
:1004E00090E02EEC30E0D0CFAF92BF92CF92DF926F
:1004F000FF920F931F93CF93DF936C01EB018A015F
:10050000CAD1F82E811124C00115110539F0F80166
:1005100080819181C81BD90BC80ED91EB12CA12C8A
:100520002097B1F08091E80085FD22C08091E8001D
:100530008E778093E80027D401151105A1F0F8010A
:1005400080819181A80EB91EB182A08285E0F82E2B
:100550008F2DDF91CF911F910F91FF90DF90CF9062
:10056000BF90AF90089597D18823D1F2F82EF0CFA5
:10057000F60181916F018093F1002197FFEFAF1A8F
:10058000BF0ACECFAF92BF92CF92DF92FF920F936E
:100590001F93CF93DF936C01EB018A017CD1F82E7E
:1005A000811124C00115110539F0F8018081918174
:1005B000C81BD90BC80ED91EB12CA12C2097B1F0A5
:1005C0008091E80085FD22C08091E8008B778093C0
:1005D000E800D9D301151105A1F0F80180819181BE
:1005E000A80EB91EB182A08285E0F82E8F2DDF9172
:1005F000CF911F910F91FF90DF90CF90BF90AF9060
:10060000089549D18823D1F2F82EF0CF8091F100DE
:10061000F60181936F012197FFEFAF1ABF0ACECF8A
:10062000FC01CB0120911C0130911D0126173707D9
:1006300090F0009729F42091E8002E772093E800AD
:1006400040E0009751F4411108C08091E80082FF1A
:1006500030C080E00895C901F3CF20911501222315
:10066000A1F12530A1F12091E80023FD2CC02091BB
:10067000E80022FDEACF2091E80020FFE2CF2091A0
:10068000F20030E0009719F02034310558F041E0D5
:100690002034310509F040E02091E8002E772093C6
:1006A000E800CFCF41914093F10001972F5F3F4F7A
:1006B000E9CF80911501882341F0853041F0809188
:1006C000E80083FFC2CF81E0089582E0089583E0CF
:1006D0000895FC01CB01009729F42091E8002B77C5
:1006E0002093E800009731F48091E80080FF1AC061
:1006F00080E00895209115012223F1F02530C1F00A
:100700002091E80023FD16C02091E80022FFEACFE7
:100710002091F200222309F32091F1002193019707
:10072000B9F7DBCF80911501882331F08530E1F6F0
:1007300083E0089581E0089582E00895FC01CB01F3
:1007400020911C0130911D012617370790F000976A
:1007500029F42091E8002E772093E80040E00097EC
:1007600051F4411108C08091E80082FF31C080E05F
:100770000895C901F3CF209115012223A9F1253055
:10078000A9F12091E80023FD2DC02091E80022FD71
:10079000EACF2091E80020FFE2CF2091F20030E084
:1007A000009719F02034310558F041E0203431052C
:1007B00009F040E02091E8002E772093E800CFCFA9
:1007C00044914093F100319601972F5F3F4FE8CF5E
:1007D00080911501882341F0853041F08091E80037
:1007E00083FFC1CF81E0089582E0089583E00895FA
:1007F000982F953028F08F708093E90081E008955C
:100800009093E900242F762F50E0981731F07091E3
:10081000EC002091ED005091F00021FD02C09F5F9F
:10082000E8CF3091EB003E7F3093EB003091ED004C
:100830003D7F3093ED003091EB0031603093EB0061
:100840007093EC002093ED005093F0002091EE00A7
:1008500027FDE5CF80E008958091160187FF13C042
:100860008091E80082FF06C08091E8008B7780933A
:10087000E80004C0809115018111F2CF08958091A4
:1008800015018823D9F38091E80080FFF8CF80918B
:10089000E8008E77ECCF2091E4003091E50095E6FA
:1008A000A9012091EC00822F817020FF06C0809169
:1008B000E80080FF06C080E008952091E80022FD56
:1008C0001AC080911501882389F0853089F08091C4
:1008D000EB0085FD0FC02091E4003091E500421748
:1008E0005307F9F29150E1F684E0089582E008950B
:1008F00083E0089581E0089541D043D08091D800ED
:100900008F778093D8008091D80080688093D8003A
:100910008091D8008F7D8093D80084E089BD86E0E7
:1009200089BD09B400FEFDCF10921501109211018E
:10093000109213011092120142E360E080E058DF50
:100940008091E1008E7F8093E1008091E2008160E0
:100950008093E2008091E20088608093E2008091C1
:10096000E0008E7F8093E0000895E3E6F0E0808170
:100970008E7F808381E080931401BECF1092E200CD
:1009800008951092E10008951F920F920FB60F92F2
:1009900011242F933F934F935F936F937F938F9384
:1009A0009F93AF93BF93EF93FF938091E10082FFFA
:1009B0000AC08091E20082FF06C08091E1008B7F37
:1009C0008093E100DFD18091E10080FF17C080912A
:1009D000E20080FF13C08091E2008E7F8093E200EE
:1009E0008091E20080618093E2008091D800806273
:1009F0008093D80019BC10921501A0DC8091E10011
:100A000084FF27C08091E20084FF23C084E089BD79
:100A100086E089BD09B400FEFDCF8091D8008F7DAE
:100A20008093D8008091E1008F7E8093E1008091D7
:100A3000E2008F7E8093E2008091E20081608093EB
:100A4000E200809111018823D9F184E0809315019F
:100A500074DC8091E10083FF22C08091E20083FF7B
:100A60001EC08091E100877F8093E10082E0809347
:100A70001501109211018091E1008E7F8093E100B9
:100A80008091E2008E7F8093E2008091E20080619D
:100A90008093E20042E360E080E0AADE73D1FF9140
:100AA000EF91BF91AF919F918F917F916F915F91E6
:100AB0004F913F912F910F900FBE0F901F9018955F
:100AC0008091E30087FD02C081E0C0CF83E0BECF0C
:100AD0001F93CF93DF93CDB7DEB7AA970FB6F894E5
:100AE000DEBF0FBECDBF86E191E0FC0101962091F3
:100AF000F100208321E08E319207B9F728DC809144
:100B0000E80083FF10C08091160190911701953085
:100B100009F4C2C000F5292F2D7F213009F489C0C6
:100B2000992309F45EC08091E80083FF0AC0809198
:100B3000E800877F8093E8008091EB0080628093DB
:100B4000EB00AA960FB6F894DEBF0FBECDBFDF91C3
:100B5000CF911F910895983009F4D5C0993009F4C8
:100B6000DFC0963001F780588230E8F68091180196
:100B7000909119018C3D23E0920709F0AFC083E00A
:100B80008A838AE289834FB7F894DE01139620E0C6
:100B90003EE051E2E32FF0E050935700E49120FF54
:100BA00003C0E295EF703F5FEF708E2F90E0EA3068
:100BB00008F492C0C7968D939D932F5F243151F70F
:100BC0004FBF8091E800877F8093E8006AE270E081
:100BD000CE01019625DD8091E8008B778093E800B7
:100BE000A2CF803899F0823809F09DCF80911A0108
:100BF0008F70853008F097CF8093E9008091EB00EB
:100C000085FB882780F91092E90006C080911201C7
:100C100090911301911182609091E800977F9093D9
:100C2000E8008093F1001092F1008091E8008E7747
:100C3000A5C0882309F492C0823009F074CF809156
:100C40001801811196C080911A018F702FEF280F23
:100C5000243008F068CF8093E9002091EB0020FF5A
:100C600088C0933031F48091EB0080628093EB0078
:100C700080C09091EB0090619093EB0021E030E018
:100C800001C0220F8A95EAF72093EA001092EA0049
:100C90008091EB008860EACF811145CF1091180157
:100CA0001F778091E3008078812B8093E30080910F
:100CB000E800877F8093E800CFDD8091E80080FF27
:100CC000FCCF8091E30080688093E30082E0111103
:100CD00083E08093150127CFC0966DCF60911A01F4
:100CE00070911B01AE014F5F5F4FBDDBBC01892BD3
:100CF00009F419CF8091E800877F8093E80089810B
:100D00009A811CDD68CF803809F00DCF8091E80012
:100D1000877F8093E800809111018093F10085CF57
:100D2000811101CF90911801923008F0FCCE809192
:100D3000E800877F8093E800909311018DDD80911A
:100D40001101882311F084E005C08091E30087FD44
:100D5000FACF81E080931501F2DAE5CE8091180197
:100D6000813009F0E0CE81E0933009F080E080939B
:100D700013011092E9008091E800877F8093E800DA
:100D80006BDDD1CE0895CF9380911501882399F022
:100D9000C091E900CF709091EC00892F817090FD97
:100DA00080E8C82B1092E9008091E80083FD90DE76
:100DB000CF70C093E900CF910895FC0180E8838350
:100DC00084838583868388E0828311821082809168
:100DD0000C01811128C020910D0130910E012436A3
:100DE000310560F422333105B0F0C90162E370E0EF
:100DF000E0D7499748F484E090E012C024363105EA
:100E000019F481E080930C012F5F3F4F30930E0166
:100E100020930D01089580E390E029313105A0F77A
:100E200091838083F1CFCF01B4C2FC019B01683E66
:100E300047E1740708F078C0643D87E1780708F05F
:100E400011C1653E96E07907B8F5603E46E074074B
:100E500080F4603981E07807B0F46B3891E079076D
:100E600008F0E8C06233710530F46D32710508F4A2
:100E7000D9C080E8DDC080819181826091838083C8
:100E8000138280E0CEC06A3842E0740748F46538C7
:100E9000724058F080819181846091838083E9CF92
:100EA000245A36402932310560F780819181826071
:100EB000918380831482E5CF663A9EE0790728F516
:100EC00064374EE0740708F0C0C0683587E07807E3
:100ED00080F46335774008F0B0C0265E36402D368A
:100EE000310578F6808191818260918380838FEFD4
:100EF000A2C0CB016AE070E05CD7069710F2808157
:100F00009181826091838083BCCF623344E1740716
:100F100008F4A0C0205737412A30310508F0B1CF7E
:100F2000808191819061EECF6D358CE1780708F07A
:100F300047C063359CE17907B8F4693A4BE174071F
:100F400040F56E358AE1780708F090C06C3D99E174
:100F5000790770F4683C794108F099C0285338410A
:100F60002431310508F08DCF808191818460CACF12
:100F7000CB018C5D99418135910508F082CFCB0181
:100F800064E170E016D70B9708F47BCF82E0828390
:100F900078CF63308CE1780748F46C3B9BE17907AC
:100FA00008F46FCFCB018C5B9B4107C0CB01805213
:100FB0009C418333910508F064CF4E97A8F260C03E
:100FC000663D48E3740718F5643A8FE1780708F046
:100FD00060C06A399FE1790708F0A2CF66384FE117
:100FE000740710F6CB0180579C41853E924008F073
:100FF00048CFCB016AE070E0DCD6059708F441CF1A
:10100000233D8EE1380708F054C012823ACF663B88
:101010008EE4780708F445C081E0663B7E4409F021
:1010200030CF0895808191818260918380838FEF9A
:10103000848327CF80E8838324CF8081918184605B
:101040009183808380E88383F3CF80819181806165
:10105000916058CFCB016AE070E0ABD6069708F4F8
:1010600010CF82CF8081918188604CCFCB018E558B
:101070009A41C29708F478CF6C317B4108F401CFD4
:10108000C9016AE070E095D6059708F4FACE84E0CD
:101090007ECFCB016AE070E08CD6059708F064CF74
:1010A000F0CECB016AE070E084D6059708F027CF38
:1010B000E8CE263E4EE1340708F4E3CE2F309FE120
:1010C000390708F463CF22329FE1390708F4D9CEFB
:1010D00027334FE13407D8F22A343F4108F056CF86
:1010E000D0CEFC019B016A3747E1740708F06AC063
:1010F000603787E1780708F00DC16D3C96E079070D
:1011000070F5643A46E0740708F0E4C0603981E0A5
:101110007807B0F46B3891E0790708F0D8C06233F3
:10112000710530F46D32710508F4CAC080E835C02D
:1011300080819181826091838083138280E0BFC02F
:101140006538724008F4C6C0255832402530310554
:10115000A8F780819181846091838083E7CF643791
:101160008EE07807E0F4683597E0790708F0C0C0B2
:10117000633547E0740750F4663E764008F0B1C02E
:10118000205E36402530310588F2D8CF80819181AC
:1011900084609183808380E883838483CFCF663AA1
:1011A0009EE0790708F4B1C0CB01865A9E408C3886
:1011B000954020F6CB016AE070E0FBD5069708F475
:1011C000BDCF69C063358CE1780708F04CC0603250
:1011D0009CE1790708F0ACC06D324AE17407F8F47D
:1011E0006C3D89E1780708F099C06C3498E1790783
:1011F00070F46833784108F04EC0245D37412431E3
:10120000310508F09BCF8081918188607BC0285C8C
:1012100039412431310508F091CF84E087C0693A23
:101220008BE17807B0F46E359AE1790708F486CF40
:10123000CB018E559A41C29770F16C317B4108F415
:101240007DCFC9016AE070E0B4D5059708F476CF88
:10125000E4CFCB018C5B9B418734910508F06ECFC6
:101260004E97C8F0EECF6A314DE17407F0F460316B
:101270008DE1780708F04EC06F3D9CE1790778F466
:1012800060374CE1740708F057C023553C412331C7
:10129000310508F053CF80819181846033C02C5F89
:1012A0003C4124313105B8F349CF6C3486E37807EB
:1012B00008F467C081E060387E4309F03FCF0895AD
:1012C000808191818260918380838FEF66CF80E8F7
:1012D000838334CF80819181826091838083148263
:1012E0002DCF808191818260918380838FEFF0CFB9
:1012F000CB016AE070E05DD5069708F41FCF8081CE
:10130000918182609183808319CF808191818061F6
:101310009160F8CF808191819061F4CFCB0164E13D
:1013200070E047D50B9708F409CF82E0828306CF9F
:10133000CB0180529C4194CFCB0180579C414E976A
:1013400018F484E08283A7CFCB016AE070E031D546
:101350008530910530F02D3A4CE1340710F482E0ED
:10136000F1CFA901405C5C414531510518F4059766
:1013700040F791CF243D3C4108F48DCF059778F795
:101380008ACFCB016AE070E014D5059708F083CFCF
:10139000D5CE0F931F93CF93DF93D82FC92F809172
:1013A000000100910F01109110018E3109F463C307
:1013B00008F0E7C08F3009F498C208F070C0873099
:1013C00009F427C2A0F5833009F4EDC1B8F48130E7
:1013D00009F4C5C1823009F4D4C1882309F4D7C403
:1013E00080910F01909110010196909310018093CC
:1013F0000F01DF91CF911F910F910895853009F46E
:10140000E4C1863009F4F3C1843051F7B8018D2F5F
:1014100068DE882329F3B8018D2F9C2F06DD85E037
:10142000809300011092100110920F01D9CF8B30E0
:1014300009F425C2C8F4893009F4FDC18A3009F4E1
:101440000CC2883069F6B8018D2F4BDE882341F23B
:10145000B8018D2F9C2FE9DC89E080930001109268
:10146000100110920F01BCCF8D3009F41AC28E30DA
:1014700009F429C28C3009F0B3CFB8018D2F31DEC9
:10148000882309F4ADCFB8018D2F9C2FCEDC8DE0E1
:10149000809300011092100110920F01A1CF8731AB
:1014A00009F48FC2D0F5833109F455C2D8F48131E3
:1014B00009F42DC2823109F43CC2803109F090CF89
:1014C000B8018D2F0EDE882309F48ACFB8018D2F45
:1014D0009C2FABDC81E180930001109210011092EF
:1014E0000F017ECF853109F448C2863109F457C215
:1014F000843109F075CFB8018D2FF3DD882309F40D
:101500006FCFB8018D2F9C2F90DC85E18093000177
:101510001092100110920F0163CF8B3109F487C232
:10152000D8F4893109F45FC28A3109F46EC2883176
:1015300009F056CFB8018D2FD4DD882309F450CFA0
:10154000B8018D2F9C2F71DC89E1809300011092EE
:10155000100110920F0144CF8C3109F07AC2B8010A
:101560008D2FBFDD882309F43BCFB8018D2F9C2F31
:101570005CDC8DE1809300011092100110920F014C
:101580002FCF8D3209F43DC308F075C0863209F4BF
:10159000DEC2D0F5823209F4A4C2D8F4803209F454
:1015A0007CC2813209F48BC28F3109F019CFB801A6
:1015B0008D2F97DD882309F413CFB8018D2F9C2F31
:1015C00034DC80E2809300011092100110920F0130
:1015D00007CF843209F497C2853209F4A6C2833258
:1015E00009F0FECEB8018D2F7CDD882309F4F8CEFA
:1015F000B8018D2F9C2F19DC84E28093000110929A
:10160000100110920F01ECCE8A3209F4D6C2D8F440
:10161000883209F4AEC2893209F4BDC2873209F0BA
:10162000DFCEB8018D2F5DDD882309F4D9CEB80156
:101630008D2F9C2FFADB88E280930001109210011D
:1016400010920F01CDCE8B3209F4C9C28C3209F051
:10165000C7CEB8018D2F45DD882309F4C1CEB8016E
:101660008D2F9C2FE2DB8DE2809300011092100100
:1016700010920F01B5CE853309F42FC3D0F5813315
:1016800009F4F5C2D8F48F3209F4CDC2803309F4DD
:10169000DCC28E3209F0A4CEB8018D2F22DD882362
:1016A00009F49ECEB8018D2F9C2FBFDB8FE2809373
:1016B00000011092100110920F0192CE833309F4B1
:1016C000E8C2843309F4F7C2823309F089CEB80145
:1016D0008D2F07DD882309F483CEB8018D2F9C2F31
:1016E000A4DB83E3809300011092100110920F019C
:1016F00077CE893309F427C3D8F4873309F4FFC2BE
:10170000883309F40EC3863309F06ACEB8018D2FF1
:10171000E8DC882309F464CEB8018D2F9C2F85DB8B
:1017200087E3809300011092100110920F0158CEB0
:101730008A3309F41AC38B3309F052CEB8018D2FC6
:10174000D0DC882309F44CCEB8018D2F9C2F6DDBA3
:10175000109200011092100110920F0141CEB801B9
:101760008D2FBFDC882309F43BCEB8018D2F9C2F31
:101770005CDB82E0809300011092100110920F0157
:101780002FCEB8018D2FADDC882309F429CEB80106
:101790008D2F9C2F4ADB83E0809300011092100173
:1017A00010920F011DCEB8018D2F9BDC882309F408
:1017B00017CEB8018D2F9C2F38DB84E08093000179
:1017C0001092100110920F010BCEB8018D2F89DC01
:1017D000882309F405CEB8018D2F9C2F26DB86E0E7
:1017E000809300011092100110920F01F9CDB80101
:1017F0008D2F77DC882309F4F3CDB8018D2F9C2F32
:1018000014DB87E0809300011092100110920F0109
:10181000E7CDB8018D2F65DC882309F4E1CDB8014F
:101820008D2F9C2F02DB88E0809300011092100125
:1018300010920F01D5CDB8018D2F53DC882309F408
:10184000CFCDB8018D2F9C2FF0DA8AE08093000174
:101850001092100110920F01C3CDB8018D2F41DC01
:10186000882309F4BDCDB8018D2F9C2FDEDA8BE0E3
:10187000809300011092100110920F01B1CDB801B8
:101880008D2F2FDC882309F4ABCDB8018D2F9C2F31
:10189000CCDA8CE0809300011092100110920F01BD
:1018A0009FCDB8018D2F1DDC882309F499CDB80197
:1018B0008D2F9C2FBADA8EE08093000110921001D8
:1018C00010920F018DCDB8018D2F0BDC882309F408
:1018D00087CDB8018D2F9C2FA8DA8FE0809300016F
:1018E0001092100110920F017BCDB8018D2FF9DB02
:1018F000882309F475CDB8018D2F9C2F96DA80E1ED
:10190000809300011092100110920F0169CDB8016F
:101910008D2FE7DB882309F463CDB8018D2F9C2F31
:1019200084DA82E1809300011092100110920F017D
:1019300057CDB8018D2FD5DB882309F451CDB801DF
:101940008D2F9C2F72DA83E1809300011092100199
:1019500010920F0145CDB8018D2FC3DB882309F408
:101960003FCDB8018D2F9C2F60DA84E18093000178
:101970001092100110920F0133CDB8018D2FB1DB01
:10198000882309F42DCDB8018D2F9C2F4EDA86E1E6
:10199000809300011092100110920F0121CDB80127
:1019A0008D2F9FDB882309F41BCDB8018D2F9C2F31
:1019B0003CDA87E1809300011092100110920F0130
:1019C0000FCDB8018D2F8DDB882309F409CDB80127
:1019D0008D2F9C2F2ADA88E180930001109210014C
:1019E00010920F01FDCCB8018D2F7BDB882309F409
:1019F000F7CCB8018D2F9C2F18DA8AE18093000173
:101A00001092100110920F01EBCCB8018D2F69DB01
:101A1000882309F4E5CCB8018D2F9C2F06DA8BE1E1
:101A2000809300011092100110920F01D9CCB801DF
:101A30008D2F57DB882309F4D3CCB8018D2F9C2F31
:101A4000F4D98CE1809300011092100110920F01E3
:101A5000C7CCB8018D2F45DB882309F4C1CCB80170
:101A60008D2F9C2FE2D98EE18093000110921001FE
:101A700010920F01B5CCB8018D2F33DB882309F408
:101A8000AFCCB8018D2F9C2FD0D98FE1809300016E
:101A90001092100110920F01A3CCB8018D2F21DB01
:101AA000882309F49DCCB8018D2F9C2FBED981E2EB
:101AB000809300011092100110920F0191CCB80197
:101AC0008D2F0FDB882309F48BCCB8018D2F9C2F31
:101AD000ACD982E2809300011092100110920F01A4
:101AE0007FCCB8018D2FFDDA882309F479CCB801B9
:101AF0008D2F9C2F9AD983E28093000110921001C0
:101B000010920F016DCCB8018D2FEBDA882309F408
:101B100067CCB8018D2F9C2F88D985E28093000176
:101B20001092100110920F015BCCB8018D2FD9DA01
:101B3000882309F455CCB8018D2F9C2F76D986E2E5
:101B4000809300011092100110920F0149CCB8014E
:101B50008D2FC7DA882309F443CCB8018D2F9C2F31
:101B600064D987E2809300011092100110920F0156
:101B700037CCB8018D2FB5DA882309F431CCB80100
:101B80008D2F9C2F52D989E2809300011092100171
:101B900010920F0125CCB8018D2FA3DA882309F408
:101BA0001FCCB8018D2F9C2F40D98AE28093000171
:101BB0001092100110920F0113CCB8018D2F91DA01
:101BC000882309F40DCCB8018D2F9C2F2ED98BE2E0
:101BD000809300011092100110920F0101CCB80106
:101BE0008D2F7FDA882309F4FBCBB8018D2F9C2F32
:101BF0001CD98CE2809300011092100110920F0109
:101C0000EFCBB8018D2F6DDA882309F4E9CBB80149
:101C10008D2F9C2F0AD98EE2809300011092100123
:101C200010920F01DDCBB8018D2F5BDA882309F408
:101C3000D7CBB8018D2F9C2FF8D880E3809300017B
:101C40001092100110920F01CBCBB8018D2F49DA01
:101C5000882309F4C5CBB8018D2F9C2FE6D881E3EA
:101C6000809300011092100110920F01B9CBB801BE
:101C70008D2F37DA882309F4B3CBB8018D2F9C2F31
:101C8000D4D882E3809300011092100110920F01CA
:101C9000A7CBB8018D2F25DA882309F4A1CBB80191
:101CA0008D2F9C2FC2D884E38093000110921001E5
:101CB00010920F0195CBB8018D2F13DA882309F408
:101CC0008FCBB8018D2F9C2FB0D885E38093000176
:101CD0001092100110920F0183CBB8018D2F01DA01
:101CE000882309F47DCBB8018D2F9C2F9ED886E3E5
:101CF000809300011092100110920F0171CBB80176
:101D00008D2FEFD9882309F46BCBB8018D2F9C2F31
:101D10008CD888E3809300011092100110920F017B
:101D20005FCBB8018D2FDDD9882309F459CBB801D9
:101D30008D2F9C2F7AD889E3809300011092100197
:101D400010920F014DCBB8018D2FCBD9882309F408
:101D500047CBB8018D2F9C2F68D88AE38093000170
:101D60001092100110920F013BCBB8018D2FB9D901
:101D7000882309F435CBB8018D2F9C2F56D88BE3DF
:101D8000809300011092100110920F0129CBB8012D
:101D90008D2F4BD8882309F423CBB8018D2F9C2F8E
:101DA000A0D981E0809300011092100110920F01E0
:101DB00017CBAA1BBB1B51E107C0AA1FBB1FA6174D
:101DC000B70710F0A61BB70B881F991F5A95A9F7E4
:0E1DD00080959095BC01CD010895F894FFCF49
:021DDE00010002
:00000001FF
